{
  "contractName": "SupplyChain",
  "abi": [
    {
      "anonymous": false,
      "inputs": [
        {
          "indexed": true,
          "internalType": "uint32",
          "name": "productId",
          "type": "uint32"
        }
      ],
      "name": "TransferOwnership",
      "type": "event"
    },
    {
      "constant": true,
      "inputs": [],
      "name": "owner_id",
      "outputs": [
        {
          "internalType": "uint32",
          "name": "",
          "type": "uint32"
        }
      ],
      "payable": false,
      "stateMutability": "view",
      "type": "function"
    },
    {
      "constant": true,
      "inputs": [
        {
          "internalType": "uint32",
          "name": "",
          "type": "uint32"
        }
      ],
      "name": "ownerships",
      "outputs": [
        {
          "internalType": "uint32",
          "name": "productId",
          "type": "uint32"
        },
        {
          "internalType": "uint32",
          "name": "ownerId",
          "type": "uint32"
        },
        {
          "internalType": "uint32",
          "name": "txTimestamp",
          "type": "uint32"
        },
        {
          "internalType": "address",
          "name": "productOwnerAddress",
          "type": "address"
        }
      ],
      "payable": false,
      "stateMutability": "view",
      "type": "function"
    },
    {
      "constant": true,
      "inputs": [],
      "name": "participant_id",
      "outputs": [
        {
          "internalType": "uint32",
          "name": "",
          "type": "uint32"
        }
      ],
      "payable": false,
      "stateMutability": "view",
      "type": "function"
    },
    {
      "constant": true,
      "inputs": [
        {
          "internalType": "uint32",
          "name": "",
          "type": "uint32"
        }
      ],
      "name": "participants",
      "outputs": [
        {
          "internalType": "string",
          "name": "username",
          "type": "string"
        },
        {
          "internalType": "string",
          "name": "password",
          "type": "string"
        },
        {
          "internalType": "string",
          "name": "participantType",
          "type": "string"
        },
        {
          "internalType": "address",
          "name": "participantAddress",
          "type": "address"
        }
      ],
      "payable": false,
      "stateMutability": "view",
      "type": "function"
    },
    {
      "constant": true,
      "inputs": [
        {
          "internalType": "uint32",
          "name": "",
          "type": "uint32"
        },
        {
          "internalType": "uint256",
          "name": "",
          "type": "uint256"
        }
      ],
      "name": "productTrack",
      "outputs": [
        {
          "internalType": "uint32",
          "name": "",
          "type": "uint32"
        }
      ],
      "payable": false,
      "stateMutability": "view",
      "type": "function"
    },
    {
      "constant": true,
      "inputs": [],
      "name": "product_id",
      "outputs": [
        {
          "internalType": "uint32",
          "name": "",
          "type": "uint32"
        }
      ],
      "payable": false,
      "stateMutability": "view",
      "type": "function"
    },
    {
      "constant": true,
      "inputs": [
        {
          "internalType": "uint32",
          "name": "",
          "type": "uint32"
        }
      ],
      "name": "products",
      "outputs": [
        {
          "internalType": "string",
          "name": "modelNumber",
          "type": "string"
        },
        {
          "internalType": "string",
          "name": "partNumber",
          "type": "string"
        },
        {
          "internalType": "string",
          "name": "serialNumber",
          "type": "string"
        },
        {
          "internalType": "address",
          "name": "productOwnerAddress",
          "type": "address"
        },
        {
          "internalType": "uint32",
          "name": "cost",
          "type": "uint32"
        },
        {
          "internalType": "uint32",
          "name": "manifacturedTimestamp",
          "type": "uint32"
        }
      ],
      "payable": false,
      "stateMutability": "view",
      "type": "function"
    },
    {
      "constant": false,
      "inputs": [
        {
          "internalType": "string",
          "name": "_username",
          "type": "string"
        },
        {
          "internalType": "string",
          "name": "_password",
          "type": "string"
        },
        {
          "internalType": "address",
          "name": "_participantAddress",
          "type": "address"
        },
        {
          "internalType": "string",
          "name": "_participantType",
          "type": "string"
        }
      ],
      "name": "addParticipant",
      "outputs": [
        {
          "internalType": "uint32",
          "name": "",
          "type": "uint32"
        }
      ],
      "payable": false,
      "stateMutability": "nonpayable",
      "type": "function"
    },
    {
      "constant": true,
      "inputs": [
        {
          "internalType": "uint32",
          "name": "_participantId",
          "type": "uint32"
        }
      ],
      "name": "getParticipant",
      "outputs": [
        {
          "internalType": "string",
          "name": "",
          "type": "string"
        },
        {
          "internalType": "address",
          "name": "",
          "type": "address"
        },
        {
          "internalType": "string",
          "name": "",
          "type": "string"
        }
      ],
      "payable": false,
      "stateMutability": "view",
      "type": "function"
    },
    {
      "constant": false,
      "inputs": [
        {
          "internalType": "uint32",
          "name": "_ownerId",
          "type": "uint32"
        },
        {
          "internalType": "string",
          "name": "_modelNumber",
          "type": "string"
        },
        {
          "internalType": "string",
          "name": "_partNumber",
          "type": "string"
        },
        {
          "internalType": "string",
          "name": "_serialNumber",
          "type": "string"
        },
        {
          "internalType": "uint32",
          "name": "_cost",
          "type": "uint32"
        }
      ],
      "name": "addProduct",
      "outputs": [
        {
          "internalType": "uint32",
          "name": "",
          "type": "uint32"
        }
      ],
      "payable": false,
      "stateMutability": "nonpayable",
      "type": "function"
    },
    {
      "constant": true,
      "inputs": [
        {
          "internalType": "uint32",
          "name": "_productId",
          "type": "uint32"
        }
      ],
      "name": "getProduct",
      "outputs": [
        {
          "internalType": "string",
          "name": "",
          "type": "string"
        },
        {
          "internalType": "string",
          "name": "",
          "type": "string"
        },
        {
          "internalType": "string",
          "name": "",
          "type": "string"
        },
        {
          "internalType": "address",
          "name": "",
          "type": "address"
        },
        {
          "internalType": "uint32",
          "name": "",
          "type": "uint32"
        },
        {
          "internalType": "uint32",
          "name": "",
          "type": "uint32"
        }
      ],
      "payable": false,
      "stateMutability": "view",
      "type": "function"
    },
    {
      "constant": false,
      "inputs": [
        {
          "internalType": "uint32",
          "name": "_ownerIdFrom",
          "type": "uint32"
        },
        {
          "internalType": "uint32",
          "name": "_ownerIdTo",
          "type": "uint32"
        },
        {
          "internalType": "uint32",
          "name": "_productId",
          "type": "uint32"
        }
      ],
      "name": "transferOwnershipToNewOwner",
      "outputs": [
        {
          "internalType": "bool",
          "name": "",
          "type": "bool"
        }
      ],
      "payable": false,
      "stateMutability": "nonpayable",
      "type": "function"
    },
    {
      "constant": true,
      "inputs": [
        {
          "internalType": "uint32",
          "name": "_productId",
          "type": "uint32"
        }
      ],
      "name": "getProvenance",
      "outputs": [
        {
          "internalType": "uint32[]",
          "name": "",
          "type": "uint32[]"
        }
      ],
      "payable": false,
      "stateMutability": "view",
      "type": "function"
    },
    {
      "constant": true,
      "inputs": [
        {
          "internalType": "uint32",
          "name": "_ownershipId",
          "type": "uint32"
        }
      ],
      "name": "getOwnership",
      "outputs": [
        {
          "internalType": "uint32",
          "name": "",
          "type": "uint32"
        },
        {
          "internalType": "uint32",
          "name": "",
          "type": "uint32"
        },
        {
          "internalType": "address",
          "name": "",
          "type": "address"
        },
        {
          "internalType": "uint32",
          "name": "",
          "type": "uint32"
        }
      ],
      "payable": false,
      "stateMutability": "view",
      "type": "function"
    },
    {
      "constant": true,
      "inputs": [
        {
          "internalType": "uint32",
          "name": "_uid",
          "type": "uint32"
        },
        {
          "internalType": "string",
          "name": "_uname",
          "type": "string"
        },
        {
          "internalType": "string",
          "name": "_pass",
          "type": "string"
        },
        {
          "internalType": "string",
          "name": "_utype",
          "type": "string"
        }
      ],
      "name": "authenticateParticipant",
      "outputs": [
        {
          "internalType": "bool",
          "name": "",
          "type": "bool"
        }
      ],
      "payable": false,
      "stateMutability": "view",
      "type": "function"
    }
  ],
  "bytecode": "0x608060405260008060006101000a81548163ffffffff021916908363ffffffff16021790555060008060046101000a81548163ffffffff021916908363ffffffff16021790555060008060086101000a81548163ffffffff021916908363ffffffff16021790555034801561007357600080fd5b50613806806100836000396000f3fe608060405234801561001057600080fd5b50600436106100f55760003560e01c80638f5ebf7111610097578063df6d23f111610066578063df6d23f114610e1e578063eab0a47914610ecb578063ebf43a7e14610ef5578063fc2da9101461111e576100f5565b80638f5ebf71146109af578063a638ac49146109d9578063bf712fd614610bb7578063c856956514610d95576100f5565b806350632104116100d35780635063210414610310578063721b5743146105395780637d0a9ac91461074a57806381e1561014610902576100f5565b80631a074802146100fa5780632bd6e5f8146101585780633b26a65d146101c4575b600080fd5b6101366004803603604081101561011057600080fd5b81019080803563ffffffff16906020019092919080359060200190929190505050611148565b604051808263ffffffff1663ffffffff16815260200191505060405180910390f35b6101aa6004803603606081101561016e57600080fd5b81019080803563ffffffff169060200190929190803563ffffffff169060200190929190803563ffffffff16906020019092919050505061118e565b604051808215151515815260200191505060405180910390f35b6101f6600480360360208110156101da57600080fd5b81019080803563ffffffff1690602001909291905050506122bd565b60405180806020018473ffffffffffffffffffffffffffffffffffffffff1673ffffffffffffffffffffffffffffffffffffffff16815260200180602001838103835286818151815260200191508051906020019080838360005b8381101561026c578082015181840152602081019050610251565b50505050905090810190601f1680156102995780820380516001836020036101000a031916815260200191505b50838103825284818151815260200191508051906020019080838360005b838110156102d25780820151818401526020810190506102b7565b50505050905090810190601f1680156102ff5780820380516001836020036101000a031916815260200191505b509550505050505060405180910390f35b610517600480360360a081101561032657600080fd5b81019080803563ffffffff1690602001909291908035906020019064010000000081111561035357600080fd5b82018360208201111561036557600080fd5b8035906020019184600183028401116401000000008311171561038757600080fd5b91908080601f016020809104026020016040519081016040528093929190818152602001838380828437600081840152601f19601f820116905080830192505050505050509192919290803590602001906401000000008111156103ea57600080fd5b8201836020820111156103fc57600080fd5b8035906020019184600183028401116401000000008311171561041e57600080fd5b91908080601f016020809104026020016040519081016040528093929190818152602001838380828437600081840152601f19601f8201169050808301925050505050505091929192908035906020019064010000000081111561048157600080fd5b82018360208201111561049357600080fd5b803590602001918460018302840111640100000000831117156104b557600080fd5b91908080601f016020809104026020016040519081016040528093929190818152602001838380828437600081840152601f19601f820116905080830192505050505050509192919290803563ffffffff16906020019092919050505061248f565b604051808263ffffffff1663ffffffff16815260200191505060405180910390f35b6107306004803603608081101561054f57600080fd5b81019080803563ffffffff1690602001909291908035906020019064010000000081111561057c57600080fd5b82018360208201111561058e57600080fd5b803590602001918460018302840111640100000000831117156105b057600080fd5b91908080601f016020809104026020016040519081016040528093929190818152602001838380828437600081840152601f19601f8201169050808301925050505050505091929192908035906020019064010000000081111561061357600080fd5b82018360208201111561062557600080fd5b8035906020019184600183028401116401000000008311171561064757600080fd5b91908080601f016020809104026020016040519081016040528093929190818152602001838380828437600081840152601f19601f820116905080830192505050505050509192919290803590602001906401000000008111156106aa57600080fd5b8201836020820111156106bc57600080fd5b803590602001918460018302840111640100000000831117156106de57600080fd5b91908080601f016020809104026020016040519081016040528093929190818152602001838380828437600081840152601f19601f8201169050808301925050505050505091929192905050506127cc565b604051808215151515815260200191505060405180910390f35b61077c6004803603602081101561076057600080fd5b81019080803563ffffffff169060200190929190505050612b1f565b604051808060200180602001806020018573ffffffffffffffffffffffffffffffffffffffff1673ffffffffffffffffffffffffffffffffffffffff168152602001848103845288818151815260200191508051906020019080838360005b838110156107f65780820151818401526020810190506107db565b50505050905090810190601f1680156108235780820380516001836020036101000a031916815260200191505b50848103835287818151815260200191508051906020019080838360005b8381101561085c578082015181840152602081019050610841565b50505050905090810190601f1680156108895780820380516001836020036101000a031916815260200191505b50848103825286818151815260200191508051906020019080838360005b838110156108c25780820151818401526020810190506108a7565b50505050905090810190601f1680156108ef5780820380516001836020036101000a031916815260200191505b5097505050505050505060405180910390f35b6109346004803603602081101561091857600080fd5b81019080803563ffffffff169060200190929190505050612d37565b604051808563ffffffff1663ffffffff1681526020018463ffffffff1663ffffffff1681526020018363ffffffff1663ffffffff1681526020018273ffffffffffffffffffffffffffffffffffffffff1673ffffffffffffffffffffffffffffffffffffffff16815260200194505050505060405180910390f35b6109b7612db7565b604051808263ffffffff1663ffffffff16815260200191505060405180910390f35b610a0b600480360360208110156109ef57600080fd5b81019080803563ffffffff169060200190929190505050612dcd565b604051808060200180602001806020018773ffffffffffffffffffffffffffffffffffffffff1673ffffffffffffffffffffffffffffffffffffffff1681526020018663ffffffff1663ffffffff1681526020018563ffffffff1663ffffffff16815260200184810384528a818151815260200191508051906020019080838360005b83811015610aa9578082015181840152602081019050610a8e565b50505050905090810190601f168015610ad65780820380516001836020036101000a031916815260200191505b50848103835289818151815260200191508051906020019080838360005b83811015610b0f578082015181840152602081019050610af4565b50505050905090810190601f168015610b3c5780820380516001836020036101000a031916815260200191505b50848103825288818151815260200191508051906020019080838360005b83811015610b75578082015181840152602081019050610b5a565b50505050905090810190601f168015610ba25780820380516001836020036101000a031916815260200191505b50995050505050505050505060405180910390f35b610be960048036036020811015610bcd57600080fd5b81019080803563ffffffff1690602001909291905050506130cf565b604051808060200180602001806020018773ffffffffffffffffffffffffffffffffffffffff1673ffffffffffffffffffffffffffffffffffffffff1681526020018663ffffffff1663ffffffff1681526020018563ffffffff1663ffffffff16815260200184810384528a818151815260200191508051906020019080838360005b83811015610c87578082015181840152602081019050610c6c565b50505050905090810190601f168015610cb45780820380516001836020036101000a031916815260200191505b50848103835289818151815260200191508051906020019080838360005b83811015610ced578082015181840152602081019050610cd2565b50505050905090810190601f168015610d1a5780820380516001836020036101000a031916815260200191505b50848103825288818151815260200191508051906020019080838360005b83811015610d53578082015181840152602081019050610d38565b50505050905090810190601f168015610d805780820380516001836020036101000a031916815260200191505b50995050505050505050505060405180910390f35b610dc760048036036020811015610dab57600080fd5b81019080803563ffffffff169060200190929190505050613313565b6040518080602001828103825283818151815260200191508051906020019060200280838360005b83811015610e0a578082015181840152602081019050610def565b505050509050019250505060405180910390f35b610e5060048036036020811015610e3457600080fd5b81019080803563ffffffff1690602001909291905050506133b6565b604051808563ffffffff1663ffffffff1681526020018463ffffffff1663ffffffff1681526020018373ffffffffffffffffffffffffffffffffffffffff1673ffffffffffffffffffffffffffffffffffffffff1681526020018263ffffffff1663ffffffff16815260200194505050505060405180910390f35b610ed36134dc565b604051808263ffffffff1663ffffffff16815260200191505060405180910390f35b6110fc60048036036080811015610f0b57600080fd5b8101908080359060200190640100000000811115610f2857600080fd5b820183602082011115610f3a57600080fd5b80359060200191846001830284011164010000000083111715610f5c57600080fd5b91908080601f016020809104026020016040519081016040528093929190818152602001838380828437600081840152601f19601f82011690508083019250505050505050919291929080359060200190640100000000811115610fbf57600080fd5b820183602082011115610fd157600080fd5b80359060200191846001830284011164010000000083111715610ff357600080fd5b91908080601f016020809104026020016040519081016040528093929190818152602001838380828437600081840152601f19601f820116905080830192505050505050509192919290803573ffffffffffffffffffffffffffffffffffffffff1690602001909291908035906020019064010000000081111561107657600080fd5b82018360208201111561108857600080fd5b803590602001918460018302840111640100000000831117156110aa57600080fd5b91908080601f016020809104026020016040519081016040528093929190818152602001838380828437600081840152601f19601f8201169050808301925050505050505091929192905050506134f1565b604051808263ffffffff1663ffffffff16815260200191505060405180910390f35b611126613642565b604051808263ffffffff1663ffffffff16815260200191505060405180910390f35b6004602052816000526040600020818154811061116157fe5b9060005260206000209060089182820401919006600402915091509054906101000a900463ffffffff1681565b600081600160008263ffffffff1663ffffffff16815260200190815260200160002060030160009054906101000a900473ffffffffffffffffffffffffffffffffffffffff1673ffffffffffffffffffffffffffffffffffffffff163373ffffffffffffffffffffffffffffffffffffffff161433604051602001808273ffffffffffffffffffffffffffffffffffffffff1673ffffffffffffffffffffffffffffffffffffffff1660601b8152601401807f206973206e6f74207468652070726f64756374206f776e6572000000000000008152506019019150506040516020818303038152906040529061131f576040517f08c379a00000000000000000000000000000000000000000000000000000000081526004018080602001828103825283818151815260200191508051906020019080838360005b838110156112e45780820151818401526020810190506112c9565b50505050905090810190601f1680156113115780820380516001836020036101000a031916815260200191505b509250505060405180910390fd5b50600260008663ffffffff1663ffffffff168152602001908152602001600020604051806080016040529081600082018054600181600116156101000203166002900480601f0160208091040260200160405190810160405280929190818152602001828054600181600116156101000203166002900480156113e35780601f106113b8576101008083540402835291602001916113e3565b820191906000526020600020905b8154815290600101906020018083116113c657829003601f168201915b50505050508152602001600182018054600181600116156101000203166002900480601f0160208091040260200160405190810160405280929190818152602001828054600181600116156101000203166002900480156114855780601f1061145a57610100808354040283529160200191611485565b820191906000526020600020905b81548152906001019060200180831161146857829003601f168201915b50505050508152602001600282018054600181600116156101000203166002900480601f0160208091040260200160405190810160405280929190818152602001828054600181600116156101000203166002900480156115275780601f106114fc57610100808354040283529160200191611527565b820191906000526020600020905b81548152906001019060200180831161150a57829003601f168201915b505050505081526020016003820160009054906101000a900473ffffffffffffffffffffffffffffffffffffffff1673ffffffffffffffffffffffffffffffffffffffff1673ffffffffffffffffffffffffffffffffffffffff1681525050600260008663ffffffff1663ffffffff168152602001908152602001600020604051806080016040529081600082018054600181600116156101000203166002900480601f0160208091040260200160405190810160405280929190818152602001828054600181600116156101000203166002900480156116495780601f1061161e57610100808354040283529160200191611649565b820191906000526020600020905b81548152906001019060200180831161162c57829003601f168201915b50505050508152602001600182018054600181600116156101000203166002900480601f0160208091040260200160405190810160405280929190818152602001828054600181600116156101000203166002900480156116eb5780601f106116c0576101008083540402835291602001916116eb565b820191906000526020600020905b8154815290600101906020018083116116ce57829003601f168201915b50505050508152602001600282018054600181600116156101000203166002900480601f01602080910402602001604051908101604052809291908181526020018280546001816001161561010002031660029004801561178d5780601f106117625761010080835404028352916020019161178d565b820191906000526020600020905b81548152906001019060200180831161177057829003601f168201915b505050505081526020016003820160009054906101000a900473ffffffffffffffffffffffffffffffffffffffff1673ffffffffffffffffffffffffffffffffffffffff1673ffffffffffffffffffffffffffffffffffffffff1681525050600060405180807f4d616e7566616374757265720000000000000000000000000000000000000000815250600c019050604051809103902083604001516040516020018082805190602001908083835b6020831061185f578051825260208201915060208101905060208303925061183c565b6001836020036101000a03801982511681845116808217855250505050505090500191505060405160208183030381529060405280519060200120148015611950575060405180807f537570706c6965720000000000000000000000000000000000000000000000008152506008019050604051809103902082604001516040516020018082805190602001908083835b6020831061191357805182526020820191506020810190506020830392506118f0565b6001836020036101000a03801982511681845116808217855250505050505090500191505060405160208183030381529060405280519060200120145b9050600060405180807f537570706c6965720000000000000000000000000000000000000000000000008152506008019050604051809103902084604001516040516020018082805190602001908083835b602083106119c557805182526020820191506020810190506020830392506119a2565b6001836020036101000a03801982511681845116808217855250505050505090500191505060405160208183030381529060405280519060200120148015611ab6575060405180807f537570706c6965720000000000000000000000000000000000000000000000008152506008019050604051809103902083604001516040516020018082805190602001908083835b60208310611a795780518252602082019150602081019050602083039250611a56565b6001836020036101000a03801982511681845116808217855250505050505090500191505060405160208183030381529060405280519060200120145b9050600060405180807f537570706c6965720000000000000000000000000000000000000000000000008152506008019050604051809103902085604001516040516020018082805190602001908083835b60208310611b2b5780518252602082019150602081019050602083039250611b08565b6001836020036101000a03801982511681845116808217855250505050505090500191505060405160208183030381529060405280519060200120148015611c1c575060405180807f436f6e73756d65720000000000000000000000000000000000000000000000008152506008019050604051809103902084604001516040516020018082805190602001908083835b60208310611bdf5780518252602082019150602081019050602083039250611bbc565b6001836020036101000a03801982511681845116808217855250505050505090500191505060405160208183030381529060405280519060200120145b90508280611c275750815b80611c2f5750805b8560400151856040015160405160200180806137b06022913960220183805190602001908083835b60208310611c7a5780518252602082019150602081019050602083039250611c57565b6001836020036101000a038019825116818451168082178552505050505050905001807f20616e642000000000000000000000000000000000000000000000000000000081525060050182805190602001908083835b60208310611cf35780518252602082019150602081019050602083039250611cd0565b6001836020036101000a0380198251168184511680821785525050505050509050019250505060405160208183030381529060405290611dce576040517f08c379a00000000000000000000000000000000000000000000000000000000081526004018080602001828103825283818151815260200191508051906020019080838360005b83811015611d93578082015181840152602081019050611d78565b50505050905090810190601f168015611dc05780820380516001836020036101000a031916815260200191505b509250505060405180910390fd5b50611dd7613658565b600260008b63ffffffff1663ffffffff168152602001908152602001600020604051806080016040529081600082018054600181600116156101000203166002900480601f016020809104026020016040519081016040528092919081815260200182805460018160011615610100020316600290048015611e9a5780601f10611e6f57610100808354040283529160200191611e9a565b820191906000526020600020905b815481529060010190602001808311611e7d57829003601f168201915b50505050508152602001600182018054600181600116156101000203166002900480601f016020809104026020016040519081016040528092919081815260200182805460018160011615610100020316600290048015611f3c5780601f10611f1157610100808354040283529160200191611f3c565b820191906000526020600020905b815481529060010190602001808311611f1f57829003601f168201915b50505050508152602001600282018054600181600116156101000203166002900480601f016020809104026020016040519081016040528092919081815260200182805460018160011615610100020316600290048015611fde5780601f10611fb357610100808354040283529160200191611fde565b820191906000526020600020905b815481529060010190602001808311611fc157829003601f168201915b505050505081526020016003820160009054906101000a900473ffffffffffffffffffffffffffffffffffffffff1673ffffffffffffffffffffffffffffffffffffffff1673ffffffffffffffffffffffffffffffffffffffff16815250509050600080600881819054906101000a900463ffffffff168092919060010191906101000a81548163ffffffff021916908363ffffffff160217905550905089600360008363ffffffff1663ffffffff16815260200190815260200160002060000160006101000a81548163ffffffff021916908363ffffffff1602179055508160600151600360008363ffffffff1663ffffffff168152602001908152602001600020600001600c6101000a81548173ffffffffffffffffffffffffffffffffffffffff021916908373ffffffffffffffffffffffffffffffffffffffff1602179055508a600360008363ffffffff1663ffffffff16815260200190815260200160002060000160046101000a81548163ffffffff021916908363ffffffff16021790555042600360008363ffffffff1663ffffffff16815260200190815260200160002060000160086101000a81548163ffffffff021916908363ffffffff1602179055508160600151600160008c63ffffffff1663ffffffff16815260200190815260200160002060030160006101000a81548173ffffffffffffffffffffffffffffffffffffffff021916908373ffffffffffffffffffffffffffffffffffffffff160217905550600460008b63ffffffff1663ffffffff16815260200190815260200160002081908060018154018082558091505090600182039060005260206000209060089182820401919006600402909192909190916101000a81548163ffffffff021916908363ffffffff160217905550508963ffffffff167fa5470ac012c6e9dc500e62b1d3de0de58db49b3ab7cfebbfb126d9abd854199b60405160405180910390a26001985050505050505050509392505050565b606060006060600260008563ffffffff1663ffffffff168152602001908152602001600020600001600260008663ffffffff1663ffffffff16815260200190815260200160002060030160009054906101000a900473ffffffffffffffffffffffffffffffffffffffff16600260008763ffffffff1663ffffffff168152602001908152602001600020600201828054600181600116156101000203166002900480601f0160208091040260200160405190810160405280929190818152602001828054600181600116156101000203166002900480156123df5780601f106123b4576101008083540402835291602001916123df565b820191906000526020600020905b8154815290600101906020018083116123c257829003601f168201915b50505050509250808054600181600116156101000203166002900480601f01602080910402602001604051908101604052809291908181526020018280546001816001161561010002031660029004801561247b5780601f106124505761010080835404028352916020019161247b565b820191906000526020600020905b81548152906001019060200180831161245e57829003601f168201915b505050505090509250925092509193909250565b600060405180807f4d616e7566616374757265720000000000000000000000000000000000000000815250600c0190506040518091039020600260008863ffffffff1663ffffffff16815260200190815260200160002060020160405160200180828054600181600116156101000203166002900480156125475780601f10612525576101008083540402835291820191612547565b820191906000526020600020905b815481529060010190602001808311612533575b505091505060405160208183030381529060405280519060200120146125b8576040517f08c379a000000000000000000000000000000000000000000000000000000000815260040180806020018281038252602481526020018061378c6024913960400191505060405180910390fd5b600080600081819054906101000a900463ffffffff168092919060010191906101000a81548163ffffffff021916908363ffffffff160217905550905085600160008363ffffffff1663ffffffff168152602001908152602001600020600001908051906020019061262b929190613696565b5084600160008363ffffffff1663ffffffff1681526020019081526020016000206001019080519060200190612662929190613696565b5083600160008363ffffffff1663ffffffff1681526020019081526020016000206002019080519060200190612699929190613696565b5082600160008363ffffffff1663ffffffff16815260200190815260200160002060030160146101000a81548163ffffffff021916908363ffffffff160217905550600260008863ffffffff1663ffffffff16815260200190815260200160002060030160009054906101000a900473ffffffffffffffffffffffffffffffffffffffff16600160008363ffffffff1663ffffffff16815260200190815260200160002060030160006101000a81548173ffffffffffffffffffffffffffffffffffffffff021916908373ffffffffffffffffffffffffffffffffffffffff16021790555042600160008363ffffffff1663ffffffff16815260200190815260200160002060030160186101000a81548163ffffffff021916908363ffffffff1602179055508091505095945050505050565b6000816040516020018082805190602001908083835b6020831061280557805182526020820191506020810190506020830392506127e2565b6001836020036101000a03801982511681845116808217855250505050505090500191505060405160208183030381529060405280519060200120600260008763ffffffff1663ffffffff16815260200190815260200160002060020160405160200180828054600181600116156101000203166002900480156128c05780601f1061289e5761010080835404028352918201916128c0565b820191906000526020600020905b8154815290600101906020018083116128ac575b5050915050604051602081830303815290604052805190602001201415612b1257836040516020018082805190602001908083835b6020831061291857805182526020820191506020810190506020830392506128f5565b6001836020036101000a03801982511681845116808217855250505050505090500191505060405160208183030381529060405280519060200120600260008763ffffffff1663ffffffff16815260200190815260200160002060000160405160200180828054600181600116156101000203166002900480156129d35780601f106129b15761010080835404028352918201916129d3565b820191906000526020600020905b8154815290600101906020018083116129bf575b5050915050604051602081830303815290604052805190602001201415612b1157826040516020018082805190602001908083835b60208310612a2b5780518252602082019150602081019050602083039250612a08565b6001836020036101000a03801982511681845116808217855250505050505090500191505060405160208183030381529060405280519060200120600260008763ffffffff1663ffffffff1681526020019081526020016000206001016040516020018082805460018160011615610100020316600290048015612ae65780601f10612ac4576101008083540402835291820191612ae6565b820191906000526020600020905b815481529060010190602001808311612ad2575b5050915050604051602081830303815290604052805190602001201415612b105760019050612b17565b5b5b600090505b949350505050565b6002602052806000526040600020600091509050806000018054600181600116156101000203166002900480601f016020809104026020016040519081016040528092919081815260200182805460018160011615610100020316600290048015612bcb5780601f10612ba057610100808354040283529160200191612bcb565b820191906000526020600020905b815481529060010190602001808311612bae57829003601f168201915b505050505090806001018054600181600116156101000203166002900480601f016020809104026020016040519081016040528092919081815260200182805460018160011615610100020316600290048015612c695780601f10612c3e57610100808354040283529160200191612c69565b820191906000526020600020905b815481529060010190602001808311612c4c57829003601f168201915b505050505090806002018054600181600116156101000203166002900480601f016020809104026020016040519081016040528092919081815260200182805460018160011615610100020316600290048015612d075780601f10612cdc57610100808354040283529160200191612d07565b820191906000526020600020905b815481529060010190602001808311612cea57829003601f168201915b5050505050908060030160009054906101000a900473ffffffffffffffffffffffffffffffffffffffff16905084565b60036020528060005260406000206000915090508060000160009054906101000a900463ffffffff16908060000160049054906101000a900463ffffffff16908060000160089054906101000a900463ffffffff169080600001600c9054906101000a900473ffffffffffffffffffffffffffffffffffffffff16905084565b600060089054906101000a900463ffffffff1681565b60608060606000806000600160008863ffffffff1663ffffffff168152602001908152602001600020600001600160008963ffffffff1663ffffffff168152602001908152602001600020600101600160008a63ffffffff1663ffffffff168152602001908152602001600020600201600160008b63ffffffff1663ffffffff16815260200190815260200160002060030160009054906101000a900473ffffffffffffffffffffffffffffffffffffffff16600160008c63ffffffff1663ffffffff16815260200190815260200160002060030160149054906101000a900463ffffffff16600160008d63ffffffff1663ffffffff16815260200190815260200160002060030160189054906101000a900463ffffffff16858054600181600116156101000203166002900480601f016020809104026020016040519081016040528092919081815260200182805460018160011615610100020316600290048015612f7b5780601f10612f5057610100808354040283529160200191612f7b565b820191906000526020600020905b815481529060010190602001808311612f5e57829003601f168201915b50505050509550848054600181600116156101000203166002900480601f0160208091040260200160405190810160405280929190818152602001828054600181600116156101000203166002900480156130175780601f10612fec57610100808354040283529160200191613017565b820191906000526020600020905b815481529060010190602001808311612ffa57829003601f168201915b50505050509450838054600181600116156101000203166002900480601f0160208091040260200160405190810160405280929190818152602001828054600181600116156101000203166002900480156130b35780601f10613088576101008083540402835291602001916130b3565b820191906000526020600020905b81548152906001019060200180831161309657829003601f168201915b5050505050935095509550955095509550955091939550919395565b6001602052806000526040600020600091509050806000018054600181600116156101000203166002900480601f01602080910402602001604051908101604052809291908181526020018280546001816001161561010002031660029004801561317b5780601f106131505761010080835404028352916020019161317b565b820191906000526020600020905b81548152906001019060200180831161315e57829003601f168201915b505050505090806001018054600181600116156101000203166002900480601f0160208091040260200160405190810160405280929190818152602001828054600181600116156101000203166002900480156132195780601f106131ee57610100808354040283529160200191613219565b820191906000526020600020905b8154815290600101906020018083116131fc57829003601f168201915b505050505090806002018054600181600116156101000203166002900480601f0160208091040260200160405190810160405280929190818152602001828054600181600116156101000203166002900480156132b75780601f1061328c576101008083540402835291602001916132b7565b820191906000526020600020905b81548152906001019060200180831161329a57829003601f168201915b5050505050908060030160009054906101000a900473ffffffffffffffffffffffffffffffffffffffff16908060030160149054906101000a900463ffffffff16908060030160189054906101000a900463ffffffff16905086565b6060600460008363ffffffff1663ffffffff1681526020019081526020016000208054806020026020016040519081016040528092919081815260200182805480156133aa57602002820191906000526020600020906000905b82829054906101000a900463ffffffff1663ffffffff168152602001906004019060208260030104928301926001038202915080841161336d5790505b50505050509050919050565b6000806000806133c4613716565b600360008763ffffffff1663ffffffff1681526020019081526020016000206040518060800160405290816000820160009054906101000a900463ffffffff1663ffffffff1663ffffffff1681526020016000820160049054906101000a900463ffffffff1663ffffffff1663ffffffff1681526020016000820160089054906101000a900463ffffffff1663ffffffff1663ffffffff16815260200160008201600c9054906101000a900473ffffffffffffffffffffffffffffffffffffffff1673ffffffffffffffffffffffffffffffffffffffff1673ffffffffffffffffffffffffffffffffffffffff1681525050905080600001518160200151826060015183604001519450945094509450509193509193565b6000809054906101000a900463ffffffff1681565b6000806000600481819054906101000a900463ffffffff168092919060010191906101000a81548163ffffffff021916908363ffffffff160217905550905085600260008363ffffffff1663ffffffff1681526020019081526020016000206000019080519060200190613566929190613696565b5084600260008363ffffffff1663ffffffff168152602001908152602001600020600101908051906020019061359d929190613696565b5083600260008363ffffffff1663ffffffff16815260200190815260200160002060030160006101000a81548173ffffffffffffffffffffffffffffffffffffffff021916908373ffffffffffffffffffffffffffffffffffffffff16021790555082600260008363ffffffff1663ffffffff1681526020019081526020016000206002019080519060200190613635929190613696565b5080915050949350505050565b600060049054906101000a900463ffffffff1681565b6040518060800160405280606081526020016060815260200160608152602001600073ffffffffffffffffffffffffffffffffffffffff1681525090565b828054600181600116156101000203166002900490600052602060002090601f016020900481019282601f106136d757805160ff1916838001178555613705565b82800160010185558215613705579182015b828111156137045782518255916020019190600101906136e9565b5b5090506137129190613766565b5090565b6040518060800160405280600063ffffffff168152602001600063ffffffff168152602001600063ffffffff168152602001600073ffffffffffffffffffffffffffffffffffffffff1681525090565b61378891905b8082111561378457600081600090555060010161376c565b5090565b9056fe4f6e6c792061204d616e7566616374757265722063616e206164642070726f647563747363616e6e6f74207472616e73666572206f776e657273686970206265747765656e20a265627a7a72315820a337b69bdaeb82f30f40e4dfde03647866b6a9771aee9f13abe3173287180c9664736f6c63430005110032",
  "source": "pragma solidity >=0.4.21 <0.6.0;\n\n//A contract to manage a Supply Chain\ncontract SupplyChain {\n    uint32 public product_id = 0;\n    uint32 public participant_id = 0;\n    uint32 public owner_id = 0;\n\n    struct product {\n        string modelNumber;\n        string partNumber;\n        string serialNumber;\n        address productOwnerAddress;\n        uint32 cost;\n        uint32 manifacturedTimestamp;\n    }\n\n    mapping(uint32 => product) public products; //list of products\n\n    struct participant {\n        string username;\n        string password;\n        string participantType; //Manufacturer, Supplyer, Consumer\n        address participantAddress;\n    }\n\n    mapping(uint32 => participant) public participants; //list of participants\n\n    struct ownership {\n        uint32 productId;\n        uint32 ownerId;\n        uint32 txTimestamp; // transaction timestamp\n        address productOwnerAddress;\n    }\n\n    //this mapping is for what products currently an owner has ?\n    mapping(uint32 => ownership) public ownerships; //map ownership by owner\n\n    //this mapping is for look at the ownership history of a specific product\n    mapping(uint32 => uint32[]) public productTrack; //map ownership by productId\n\n    event TransferOwnership(uint32 indexed productId);\n\n    //add a participant into the list giving the next id\n    function addParticipant(\n        string memory _username,\n        string memory _password,\n        address _participantAddress,\n        string memory _participantType\n    ) public returns (uint32) {\n        uint32 userId = participant_id++;\n        participants[userId].username = _username;\n        participants[userId].password = _password;\n        participants[userId].participantAddress = _participantAddress;\n        participants[userId].participantType = _participantType;\n\n        return userId;\n    }\n\n    //retrieve the participant by id\n    function getParticipant(uint32 _participantId) public view returns (string memory, address, string memory) {\n        return (\n            participants[_participantId].username,\n            participants[_participantId].participantAddress,\n            participants[_participantId].participantType\n        );\n    }\n\n    //add a new product only if the owner is a Manufaturer\n    function addProduct(\n        uint32 _ownerId,\n        string memory _modelNumber,\n        string memory _partNumber,\n        string memory _serialNumber,\n        uint32 _cost\n    ) public returns (uint32) {\n        require(\n            keccak256(abi.encodePacked(participants[_ownerId].participantType)) == keccak256(\"Manufacturer\"),\n            \"Only a Manufacturer can add products\"\n        );\n\n        uint32 productId = product_id++;\n\n        products[productId].modelNumber = _modelNumber;\n        products[productId].partNumber = _partNumber;\n        products[productId].serialNumber = _serialNumber;\n        products[productId].cost = _cost;\n        products[productId].productOwnerAddress = participants[_ownerId].participantAddress;\n        products[productId].manifacturedTimestamp = uint32(now);\n\n        return productId;\n    }\n\n    //retrieve the product by id\n    function getProduct(uint32 _productId)\n        public\n        view\n        returns (string memory, string memory, string memory, address, uint32, uint32)\n    {\n        return (\n            products[_productId].modelNumber,\n            products[_productId].partNumber,\n            products[_productId].serialNumber,\n            products[_productId].productOwnerAddress,\n            products[_productId].cost,\n            products[_productId].manifacturedTimestamp\n        );\n    }\n\n    /*\n        Moves a product along the supply chain from one owner to another\n        Only the owner of the product can tranfer the ownership.\n        Possible switches:\n            manufacturer -> supplyer\n            supplier -> supplier\n            supplier -> consumer\n    */\n    function transferOwnershipToNewOwner(uint32 _ownerIdFrom, uint32 _ownerIdTo, uint32 _productId)\n        public\n        onlyOwner(_productId)\n        allowedTypeSwitchesOnership(participants[_ownerIdFrom], participants[_ownerIdTo])\n        returns (bool)\n    {\n        participant memory ownerTo = participants[_ownerIdTo];\n        uint32 ownershipId = owner_id++;\n\n        ownerships[ownershipId].productId = _productId;\n        ownerships[ownershipId].productOwnerAddress = ownerTo.participantAddress;\n        ownerships[ownershipId].ownerId = _ownerIdTo;\n        ownerships[ownershipId].txTimestamp = uint32(now);\n        products[_productId].productOwnerAddress = ownerTo.participantAddress;\n        productTrack[_productId].push(ownershipId);\n        emit TransferOwnership(_productId);\n\n        return (true);\n    }\n\n    //return the product tracking -> list of all the owners that the product had in the supply chain\n    function getProvenance(uint32 _productId) external view returns (uint32[] memory) {\n        return productTrack[_productId];\n    }\n\n    //return the current ownership for a given ownershipId\n    function getOwnership(uint32 _ownershipId) public view returns (uint32, uint32, address, uint32) {\n        ownership memory o = ownerships[_ownershipId];\n\n        return (o.productId, o.ownerId, o.productOwnerAddress, o.txTimestamp);\n    }\n\n    /*\n        Validates that the participant is authoriszed within this supply chain.\n        (Really simple authentication to not to use in production environment).\n    */\n    function authenticateParticipant(uint32 _uid, string memory _uname, string memory _pass, string memory _utype)\n        public\n        view\n        returns (bool)\n    {\n        if (keccak256(abi.encodePacked(participants[_uid].participantType)) == keccak256(abi.encodePacked(_utype))) {\n            if (keccak256(abi.encodePacked(participants[_uid].username)) == keccak256(abi.encodePacked(_uname))) {\n                if (keccak256(abi.encodePacked(participants[_uid].password)) == keccak256(abi.encodePacked(_pass))) {\n                    return (true);\n                }\n            }\n        }\n\n        return (false);\n    }\n\n    //MODIFIERS\n\n    // require the sender is the current products's owner\n    modifier onlyOwner(uint32 _productId) {\n        require(\n            msg.sender == products[_productId].productOwnerAddress,\n            string(abi.encodePacked(msg.sender, \" is not the product owner\"))\n        );\n        _;\n    }\n\n    /*\n        require types to change ownership from -> to:\n\n        manufacturer -> supplyer\n        supplier -> supplier\n        supplier -> consumer\n    */\n    modifier allowedTypeSwitchesOnership(participant memory ownerFrom, participant memory ownerTo) {\n        bool fromManufacturerToSupplier = keccak256(abi.encodePacked(ownerFrom.participantType))\n            == keccak256(\"Manufacturer\") && keccak256(abi.encodePacked(ownerTo.participantType)) == keccak256(\"Supplier\");\n\n        bool fromSupplierToSupplier = keccak256(abi.encodePacked(ownerFrom.participantType)) == keccak256(\"Supplier\")\n            && keccak256(abi.encodePacked(ownerTo.participantType)) == keccak256(\"Supplier\");\n\n        bool fromSupplierToConsumer = keccak256(abi.encodePacked(ownerFrom.participantType)) == keccak256(\"Supplier\")\n            && keccak256(abi.encodePacked(ownerTo.participantType)) == keccak256(\"Consumer\");\n\n        require(\n            fromManufacturerToSupplier || fromSupplierToSupplier || fromSupplierToConsumer,\n            string(\n                abi.encodePacked(\n                    \"cannot transfer ownership between \", ownerFrom.participantType, \" and \", ownerTo.participantType\n                )\n            )\n        );\n        _;\n    }\n}\n",
  "sourcePath": "/Users/annibaleippolito/opensource/blokchain/supply-chain-app/contracts/SupplyChain.sol",
  "compiler": {
    "name": "solc",
    "version": "0.5.17+commit.d19bba13.Emscripten.clang"
  },
  "schemaVersion": "3.4.15",
  "updatedAt": "2023-09-17T13:24:52.304Z",
  "devdoc": {
    "methods": {}
  },
  "userdoc": {
    "methods": {}
  }
}